:020000040800F2
:10000000000002207D020008CD020008CD02000899
:10001000CD020008CD020008CD020008000000005B
:10002000000000000000000000000000CD020008F9
:10003000CD02000800000000CD020008CD0200083B
:10004000CD020008CD020008CD020008CD02000854
:10005000CD020008CD020008CD020008CD02000844
:10006000CD020008CD020008CD020008CD02000834
:10007000CD020008CD020008CD020008CD02000824
:10008000CD020008CD020008CD020008CD02000814
:10009000CD020008CD020008CD020008CD02000804
:1000A000CD020008CD020008CD020008CD020008F4
:1000B000CD020008CD020008CD020008CD020008E4
:1000C000CD020008CD020008CD020008CD020008D4
:1000D000CD020008CD020008CD020008CD020008C4
:1000E000CD020008CD020008CD020008CD020008B4
:1000F000CD020008CD020008CD020008CD020008A4
:10010000CD020008CD020008CD020008CD02000893
:10011000CD020008CD020008CD020008CD02000883
:10012000CD020008CD020008CD020008CD02000873
:10013000CD0200080000000000000000CD02000811
:10014000CD020008CD020008CD020008CD02000853
:10015000CD020008CD020008CD020008CD02000843
:10016000CD020008CD020008CD020008CD02000833
:10017000CD020008CD020008CD02000800000000FA
:1001800000000000CD020008000000000000000098
:10019000CD0200080000000000000000CD020008B1
:1001A000000000000000000000000000CD02000878
:1001B000CD020008CD020008CD020008CD020008E3
:0401C000CD02000864
:1001C40010B5054C237833B9044B13B10448AFF38D
:1001D40000800123237010BD0000002000000000F7
:1001E4001803000808B5034B1BB103490348AFF3D8
:1001F400008008BD0000000004000020180300086F
:1002040080B483B000AF194B1B6B184A43F0010351
:100214001363174B1B68164A43F480631360144B33
:100224001B68134A23F400631360114B9B69104A43
:1002340043F02003936100237B6002E07B68013379
:100244007B607B680B4A9342F8DD094B9B69084A43
:1002540043F40013936100233B6002E03B680133E5
:100264003B603B68034A9342F8DDDEE70038024016
:10027400000002409F8601000D488546AFF30080D0
:100284000C480D490D4A002302E0D458C4500433ED
:10029400C4188C42F9D30A4A0A4C002301E01360C3
:1002A4000432A242FBD300F011F8FFF7A9FFFEE7E6
:1002B4000000022000000020000000203803000895
:1002C400000000201C000020FEE7000070B50D4D6A
:1002D4000D4C641BA4100026A64209D10B4D0C4CF6
:1002E40000F018F8641BA4100026A64205D170BDC6
:1002F40055F8043B98470136EEE755F8043B984718
:100304000136F2E730030008300300083003000828
:1003140034030008F8B500BFF8BC08BC9E4670471B
:0C032400F8B500BFF8BC08BC9E4670474E
:04033000E9010008D7
:04033400C5010008F7
:040000050800027D70
:00000001FF
