:020000040800F2
:100000000000022079020008C9020008C9020008A5
:10001000C9020008C9020008C90200080000000067
:10002000000000000000000000000000C9020008FD
:10003000C902000800000000C9020008C902000847
:10004000C9020008C9020008C9020008C902000864
:10005000C9020008C9020008C9020008C902000854
:10006000C9020008C9020008C9020008C902000844
:10007000C9020008C9020008C9020008C902000834
:10008000C9020008C9020008C9020008C902000824
:10009000C9020008C9020008C9020008C902000814
:1000A000C9020008C9020008C9020008C902000804
:1000B000C9020008C9020008C9020008C9020008F4
:1000C000C9020008C9020008C9020008C9020008E4
:1000D000C9020008C9020008C9020008C9020008D4
:1000E000C9020008C9020008C9020008C9020008C4
:1000F000C9020008C9020008C9020008C9020008B4
:10010000C9020008C9020008C9020008C9020008A3
:10011000C9020008C9020008C9020008C902000893
:10012000C9020008C9020008C9020008C902000883
:10013000C90200080000000000000000C902000819
:10014000C9020008C9020008C9020008C902000863
:10015000C9020008C9020008C9020008C902000853
:10016000C9020008C9020008C9020008C902000843
:10017000C9020008C9020008C90200080000000006
:1001800000000000C902000800000000000000009C
:10019000C90200080000000000000000C9020008B9
:1001A000000000000000000000000000C90200087C
:1001B000C9020008C9020008C9020008C9020008F3
:0401C000C902000868
:1001C40010B5054C237833B9044B13B10448AFF38D
:1001D40000800123237010BD0000002000000000F7
:1001E4001403000808B5034B1BB103490348AFF3DC
:1001F400008008BD00000000040000201403000873
:1002040080B400AF184B1B6B174A43F00103136310
:10021400164B1B68154A43F480631360124B5B6CE6
:10022400114A43F001035364114B4FF4FA629A628A
:100234000F4B4FF4FA52DA620D4B01221A6000BFE1
:100244000B4B1B6903F00103002BF9D0084B1B690E
:10025400074A23F001031361044B5B69034A83F0EB
:1002640020035361EBE700BF003802400000024066
:10027400000001400D488546AFF300800C480D494D
:100284000D4A002302E0D458C4500433C4188C42ED
:10029400F9D30A4A0A4C002301E013600432A24253
:1002A400FBD300F011F8FFF7ABFFFEE700000220DC
:1002B400000000200000002034030008000000209B
:1002C4001C000020FEE7000070B50D4D0D4C641BB2
:1002D400A4100026A64209D10B4D0C4C00F018F8CE
:1002E400641BA4100026A64205D170BD55F8043B3A
:1002F40098470136EEE755F8043B98470136F2E794
:100304002C0300082C0300082C0300083003000809
:10031400F8B500BFF8BC08BC9E467047F8B500BFEE
:08032400F8BC08BC9E467047BE
:04032C00E9010008DB
:04033000C5010008FB
:040000050800027974
:00000001FF
