:020000040800F2
:1000000000000220A5030008F5030008F50300081E
:10001000F5030008F5030008F503000800000000E0
:10002000000000000000000000000000F5030008D0
:10003000F503000800000000F5030008F5030008C0
:10004000F5030008F5030008F5030008F5030008B0
:10005000F5030008F5030008F5030008F5030008A0
:10006000F5030008F5030008F5030008F503000890
:10007000F5030008F5030008F5030008F503000880
:10008000F5030008F5030008F5030008F503000870
:10009000F5030008F5030008F5030008F503000860
:1000A000F5030008F5030008F5030008F503000850
:1000B000F5030008F5030008F5030008F503000840
:1000C000F5030008F5030008F5030008F503000830
:1000D000F5030008F5030008F5030008F503000820
:1000E000F5030008F5030008F5030008F503000810
:1000F000F5030008F5030008F5030008F503000800
:10010000F5030008F5030008F5030008F5030008EF
:10011000F5030008F5030008F5030008F5030008DF
:10012000F5030008F5030008F5030008F5030008CF
:10013000F50300080000000000000000F5030008BF
:10014000F5030008F5030008F5030008F5030008AF
:10015000F5030008F5030008F5030008F50300089F
:10016000F5030008F5030008F5030008F50300088F
:10017000F5030008F5030008F5030008000000007F
:1001800000000000F503000800000000000000006F
:10019000F50300080000000000000000F50300085F
:1001A000000000000000000000000000F50300084F
:1001B000F5030008F5030008F5030008F50300083F
:0401C000F50300083B
:1001C40010B5054C237833B9044B13B10448AFF38D
:1001D40000800123237010BD0000002000000000F7
:1001E4004004000808B5034B1BB103490348AFF3AF
:1001F400008008BD00000000040000204004000846
:1002040080B582B000AF64237B604FF47A733B60A7
:10021400554B1B6B544A43F001031363534B1B6848
:10022400524A43F400631360504B1B6A4F4A43F431
:10023400801313624D4B1B6A4C4A23F40013136260
:100244004A4B1B6A494A23F480031362474B1B6AD7
:10025400464A23F400031362434B01221A644FF00D
:10026400804310229A624FF080423B68D3624FF081
:1002740080427B6853634FF080431B6A4FF0804297
:1002840023F0020313624FF080439B694FF08042D6
:1002940023F0010393614FF080439B694FF0804248
:1002A40023F0020393614FF080439B694FF0804237
:1002B40043F0080393614FF080439B694FF0804201
:1002C40023F0100393614FF080439B694FF0804209
:1002D40043F0200393614FF080439B694FF08042C9
:1002E40043F0400393614FF080431B6A4FF0804218
:1002F40043F0010313624FF080435B694FF0804287
:1003040043F0010353614FF080435B6C4FF0804234
:1003140043F4004353644FF080431B684FF0804222
:1003240043F0010313604FF080427B6853637A68A3
:100334003B689A4203DD0E4B01221A7005E07B688C
:10034400642B02D10A4B00221A70094B1B78002B34
:1003540003D17B680A337B6002E07B680A3B7B60E5
:1003640000F008F8DFE700BF003802400000024058
:100374001C00002080B483B000AF00237B6002E047
:100384007B6801337B607B6842F20F729342F7DD36
:1003940000BF00BF0C37BD465DF8047B704700000A
:1003A4000D488546AFF300800C480D490D4A0023E3
:1003B40002E0D458C4500433C4188C42F9D30A4A16
:1003C4000A4C002301E013600432A242FBD300F084
:1003D40011F8FFF715FFFEE70000022000000020DF
:1003E400000000206004000800000020200000201D
:1003F400FEE7000070B50D4D0D4C641BA4100026E3
:10040400A64209D10B4D0C4C00F018F8641BA41043
:100414000026A64205D170BD55F8043B9847013625
:10042400EEE755F8043B98470136F2E75804000814
:1004340058040008580400085C040008F8B500BF1C
:10044400F8BC08BC9E467047F8B500BFF8BC08BCB1
:040454009E46704709
:04045800E9010008AE
:04045C00C5010008CE
:04000005080003A547
:00000001FF
